{
  "contractName": "product",
  "abi": [
    {
      "inputs": [
        {
          "internalType": "uint256",
          "name": "",
          "type": "uint256"
        }
      ],
      "name": "productItems",
      "outputs": [
        {
          "internalType": "uint256",
          "name": "productId",
          "type": "uint256"
        },
        {
          "internalType": "bytes32",
          "name": "productSN",
          "type": "bytes32"
        },
        {
          "internalType": "bytes32",
          "name": "productName",
          "type": "bytes32"
        },
        {
          "internalType": "bytes32",
          "name": "productBrand",
          "type": "bytes32"
        },
        {
          "internalType": "uint256",
          "name": "productPrice",
          "type": "uint256"
        },
        {
          "internalType": "bytes32",
          "name": "productStatus",
          "type": "bytes32"
        }
      ],
      "stateMutability": "view",
      "type": "function",
      "constant": true
    },
    {
      "inputs": [
        {
          "internalType": "bytes32",
          "name": "",
          "type": "bytes32"
        }
      ],
      "name": "productMap",
      "outputs": [
        {
          "internalType": "uint256",
          "name": "",
          "type": "uint256"
        }
      ],
      "stateMutability": "view",
      "type": "function",
      "constant": true
    },
    {
      "inputs": [
        {
          "internalType": "bytes32",
          "name": "",
          "type": "bytes32"
        }
      ],
      "name": "productsForSale",
      "outputs": [
        {
          "internalType": "bytes32",
          "name": "",
          "type": "bytes32"
        }
      ],
      "stateMutability": "view",
      "type": "function",
      "constant": true
    },
    {
      "inputs": [
        {
          "internalType": "bytes32",
          "name": "",
          "type": "bytes32"
        }
      ],
      "name": "productsManufactured",
      "outputs": [
        {
          "internalType": "bytes32",
          "name": "",
          "type": "bytes32"
        }
      ],
      "stateMutability": "view",
      "type": "function",
      "constant": true
    },
    {
      "inputs": [
        {
          "internalType": "bytes32",
          "name": "",
          "type": "bytes32"
        }
      ],
      "name": "productsSold",
      "outputs": [
        {
          "internalType": "bytes32",
          "name": "",
          "type": "bytes32"
        }
      ],
      "stateMutability": "view",
      "type": "function",
      "constant": true
    },
    {
      "inputs": [
        {
          "internalType": "bytes32",
          "name": "",
          "type": "bytes32"
        },
        {
          "internalType": "uint256",
          "name": "",
          "type": "uint256"
        }
      ],
      "name": "productsWithConsumer",
      "outputs": [
        {
          "internalType": "bytes32",
          "name": "",
          "type": "bytes32"
        }
      ],
      "stateMutability": "view",
      "type": "function",
      "constant": true
    },
    {
      "inputs": [
        {
          "internalType": "bytes32",
          "name": "",
          "type": "bytes32"
        },
        {
          "internalType": "uint256",
          "name": "",
          "type": "uint256"
        }
      ],
      "name": "productsWithSeller",
      "outputs": [
        {
          "internalType": "bytes32",
          "name": "",
          "type": "bytes32"
        }
      ],
      "stateMutability": "view",
      "type": "function",
      "constant": true
    },
    {
      "inputs": [
        {
          "internalType": "uint256",
          "name": "",
          "type": "uint256"
        }
      ],
      "name": "sellers",
      "outputs": [
        {
          "internalType": "uint256",
          "name": "sellerId",
          "type": "uint256"
        },
        {
          "internalType": "bytes32",
          "name": "sellerName",
          "type": "bytes32"
        },
        {
          "internalType": "bytes32",
          "name": "sellerBrand",
          "type": "bytes32"
        },
        {
          "internalType": "bytes32",
          "name": "sellerCode",
          "type": "bytes32"
        },
        {
          "internalType": "uint256",
          "name": "sellerNum",
          "type": "uint256"
        },
        {
          "internalType": "bytes32",
          "name": "sellerManager",
          "type": "bytes32"
        },
        {
          "internalType": "bytes32",
          "name": "sellerAddress",
          "type": "bytes32"
        }
      ],
      "stateMutability": "view",
      "type": "function",
      "constant": true
    },
    {
      "inputs": [
        {
          "internalType": "bytes32",
          "name": "",
          "type": "bytes32"
        },
        {
          "internalType": "uint256",
          "name": "",
          "type": "uint256"
        }
      ],
      "name": "sellersWithManufacturer",
      "outputs": [
        {
          "internalType": "bytes32",
          "name": "",
          "type": "bytes32"
        }
      ],
      "stateMutability": "view",
      "type": "function",
      "constant": true
    },
    {
      "inputs": [
        {
          "internalType": "bytes32",
          "name": "_manufacturerId",
          "type": "bytes32"
        },
        {
          "internalType": "bytes32",
          "name": "_sellerName",
          "type": "bytes32"
        },
        {
          "internalType": "bytes32",
          "name": "_sellerBrand",
          "type": "bytes32"
        },
        {
          "internalType": "bytes32",
          "name": "_sellerCode",
          "type": "bytes32"
        },
        {
          "internalType": "uint256",
          "name": "_sellerNum",
          "type": "uint256"
        },
        {
          "internalType": "bytes32",
          "name": "_sellerManager",
          "type": "bytes32"
        },
        {
          "internalType": "bytes32",
          "name": "_sellerAddress",
          "type": "bytes32"
        }
      ],
      "name": "addSeller",
      "outputs": [],
      "stateMutability": "nonpayable",
      "type": "function"
    },
    {
      "inputs": [],
      "name": "viewSellers",
      "outputs": [
        {
          "internalType": "uint256[]",
          "name": "",
          "type": "uint256[]"
        },
        {
          "internalType": "bytes32[]",
          "name": "",
          "type": "bytes32[]"
        },
        {
          "internalType": "bytes32[]",
          "name": "",
          "type": "bytes32[]"
        },
        {
          "internalType": "bytes32[]",
          "name": "",
          "type": "bytes32[]"
        },
        {
          "internalType": "uint256[]",
          "name": "",
          "type": "uint256[]"
        },
        {
          "internalType": "bytes32[]",
          "name": "",
          "type": "bytes32[]"
        },
        {
          "internalType": "bytes32[]",
          "name": "",
          "type": "bytes32[]"
        }
      ],
      "stateMutability": "view",
      "type": "function",
      "constant": true
    },
    {
      "inputs": [
        {
          "internalType": "bytes32",
          "name": "_manufactuerID",
          "type": "bytes32"
        },
        {
          "internalType": "bytes32",
          "name": "_productName",
          "type": "bytes32"
        },
        {
          "internalType": "bytes32",
          "name": "_productSN",
          "type": "bytes32"
        },
        {
          "internalType": "bytes32",
          "name": "_productBrand",
          "type": "bytes32"
        },
        {
          "internalType": "uint256",
          "name": "_productPrice",
          "type": "uint256"
        }
      ],
      "name": "addProduct",
      "outputs": [],
      "stateMutability": "nonpayable",
      "type": "function"
    },
    {
      "inputs": [],
      "name": "viewProductItems",
      "outputs": [
        {
          "internalType": "uint256[]",
          "name": "",
          "type": "uint256[]"
        },
        {
          "internalType": "bytes32[]",
          "name": "",
          "type": "bytes32[]"
        },
        {
          "internalType": "bytes32[]",
          "name": "",
          "type": "bytes32[]"
        },
        {
          "internalType": "bytes32[]",
          "name": "",
          "type": "bytes32[]"
        },
        {
          "internalType": "uint256[]",
          "name": "",
          "type": "uint256[]"
        },
        {
          "internalType": "bytes32[]",
          "name": "",
          "type": "bytes32[]"
        }
      ],
      "stateMutability": "view",
      "type": "function",
      "constant": true
    },
    {
      "inputs": [
        {
          "internalType": "bytes32",
          "name": "_productSN",
          "type": "bytes32"
        },
        {
          "internalType": "bytes32",
          "name": "_sellerCode",
          "type": "bytes32"
        }
      ],
      "name": "manufacturerSellProduct",
      "outputs": [],
      "stateMutability": "nonpayable",
      "type": "function"
    },
    {
      "inputs": [
        {
          "internalType": "bytes32",
          "name": "_productSN",
          "type": "bytes32"
        },
        {
          "internalType": "bytes32",
          "name": "_consumerCode",
          "type": "bytes32"
        }
      ],
      "name": "sellerSellProduct",
      "outputs": [],
      "stateMutability": "nonpayable",
      "type": "function"
    },
    {
      "inputs": [
        {
          "internalType": "bytes32",
          "name": "_sellerCode",
          "type": "bytes32"
        }
      ],
      "name": "queryProductsList",
      "outputs": [
        {
          "internalType": "uint256[]",
          "name": "",
          "type": "uint256[]"
        },
        {
          "internalType": "bytes32[]",
          "name": "",
          "type": "bytes32[]"
        },
        {
          "internalType": "bytes32[]",
          "name": "",
          "type": "bytes32[]"
        },
        {
          "internalType": "bytes32[]",
          "name": "",
          "type": "bytes32[]"
        },
        {
          "internalType": "uint256[]",
          "name": "",
          "type": "uint256[]"
        },
        {
          "internalType": "bytes32[]",
          "name": "",
          "type": "bytes32[]"
        }
      ],
      "stateMutability": "view",
      "type": "function",
      "constant": true
    },
    {
      "inputs": [
        {
          "internalType": "bytes32",
          "name": "_manufacturerCode",
          "type": "bytes32"
        }
      ],
      "name": "querySellersList",
      "outputs": [
        {
          "internalType": "uint256[]",
          "name": "",
          "type": "uint256[]"
        },
        {
          "internalType": "bytes32[]",
          "name": "",
          "type": "bytes32[]"
        },
        {
          "internalType": "bytes32[]",
          "name": "",
          "type": "bytes32[]"
        },
        {
          "internalType": "bytes32[]",
          "name": "",
          "type": "bytes32[]"
        },
        {
          "internalType": "uint256[]",
          "name": "",
          "type": "uint256[]"
        },
        {
          "internalType": "bytes32[]",
          "name": "",
          "type": "bytes32[]"
        },
        {
          "internalType": "bytes32[]",
          "name": "",
          "type": "bytes32[]"
        }
      ],
      "stateMutability": "view",
      "type": "function",
      "constant": true
    },
    {
      "inputs": [
        {
          "internalType": "bytes32",
          "name": "_consumerCode",
          "type": "bytes32"
        }
      ],
      "name": "getPurchaseHistory",
      "outputs": [
        {
          "internalType": "bytes32[]",
          "name": "",
          "type": "bytes32[]"
        },
        {
          "internalType": "bytes32[]",
          "name": "",
          "type": "bytes32[]"
        },
        {
          "internalType": "bytes32[]",
          "name": "",
          "type": "bytes32[]"
        }
      ],
      "stateMutability": "view",
      "type": "function",
      "constant": true
    },
    {
      "inputs": [
        {
          "internalType": "bytes32",
          "name": "_productSN",
          "type": "bytes32"
        },
        {
          "internalType": "bytes32",
          "name": "_consumerCode",
          "type": "bytes32"
        }
      ],
      "name": "verifyProduct",
      "outputs": [
        {
          "internalType": "bool",
          "name": "",
          "type": "bool"
        }
      ],
      "stateMutability": "view",
      "type": "function",
      "constant": true
    }
  ],
  "bytecode": "0x608060405234801561001057600080fd5b5061234d806100206000396000f3fe608060405234801561001057600080fd5b50600436106101215760003560e01c80639316bff0116100ad578063c20805b411610071578063c20805b41461036a578063caaf27511461039a578063cd4f6a2e146103cf578063cee26ed5146103ff578063e262113f1461043557610121565b80639316bff0146102a05780639cd777dd146102bc5780639ea4695d146102ec578063a090f47c1461031e578063b0c7ad941461034e57610121565b80631b3658c8116100f45780631b3658c8146101d3578063344b5d51146101ef5780634b9930011461021f5780638577a7011461024f57806392162bc41461026b57610121565b8063032f95e614610126578063100b6ba21461014a578063130aa81f1461017a5780631836bd4b146101b0575b600080fd5b61012e610465565b6040516101419796959493929190611d1c565b60405180910390f35b610164600480360381019061015f9190611ded565b610852565b6040516101719190611e29565b60405180910390f35b610194600480360381019061018f9190611ded565b61086a565b6040516101a79796959493929190611d1c565b60405180910390f35b6101b8610d2d565b6040516101ca96959493929190611e44565b60405180910390f35b6101ed60048036038101906101e89190611efb565b611095565b005b61020960048036038101906102049190611f9d565b611181565b6040516102169190611ff8565b60405180910390f35b61023960048036038101906102349190612013565b6111b2565b6040516102469190612062565b60405180910390f35b61026960048036038101906102649190611f9d565b6111e3565b005b61028560048036038101906102809190611ded565b611239565b60405161029796959493929190611e44565b60405180910390f35b6102ba60048036038101906102b5919061207d565b611672565b005b6102d660048036038101906102d19190612013565b611766565b6040516102e39190612062565b60405180910390f35b61030660048036038101906103019190611ded565b611797565b604051610315939291906120f8565b60405180910390f35b61033860048036038101906103339190611ded565b61196b565b6040516103459190612062565b60405180910390f35b61036860048036038101906103639190611f9d565b611983565b005b610384600480360381019061037f9190611ded565b611aad565b6040516103919190612062565b60405180910390f35b6103b460048036038101906103af9190612144565b611ac5565b6040516103c696959493929190612171565b60405180910390f35b6103e960048036038101906103e49190611ded565b611b01565b6040516103f69190612062565b60405180910390f35b61041960048036038101906104149190612144565b611b19565b60405161042c97969594939291906121d2565b60405180910390f35b61044f600480360381019061044a9190612013565b611b5b565b60405161045c9190612062565b60405180910390f35b60608060608060608060606000805467ffffffffffffffff81111561048d5761048c612241565b5b6040519080825280602002602001820160405280156104bb5781602001602082028036833780820191505090505b5090506000805467ffffffffffffffff8111156104db576104da612241565b5b6040519080825280602002602001820160405280156105095781602001602082028036833780820191505090505b5090506000805467ffffffffffffffff81111561052957610528612241565b5b6040519080825280602002602001820160405280156105575781602001602082028036833780820191505090505b5090506000805467ffffffffffffffff81111561057757610576612241565b5b6040519080825280602002602001820160405280156105a55781602001602082028036833780820191505090505b5090506000805467ffffffffffffffff8111156105c5576105c4612241565b5b6040519080825280602002602001820160405280156105f35781602001602082028036833780820191505090505b5090506000805467ffffffffffffffff81111561061357610612612241565b5b6040519080825280602002602001820160405280156106415781602001602082028036833780820191505090505b5090506000805467ffffffffffffffff81111561066157610660612241565b5b60405190808252806020026020018201604052801561068f5781602001602082028036833780820191505090505b50905060005b60005481101561082c5760026000828152602001908152602001600020600001548882815181106106c9576106c8612270565b5b60200260200101818152505060026000828152602001908152602001600020600101548782815181106106ff576106fe612270565b5b602002602001018181525050600260008281526020019081526020016000206002015486828151811061073557610734612270565b5b602002602001018181525050600260008281526020019081526020016000206003015485828151811061076b5761076a612270565b5b60200260200101818152505060026000828152602001908152602001600020600401548482815181106107a1576107a0612270565b5b60200260200101818152505060026000828152602001908152602001600020600501548382815181106107d7576107d6612270565b5b602002602001018181525050600260008281526020019081526020016000206006015482828151811061080d5761080c612270565b5b6020026020010181815250508080610824906122ce565b915050610695565b50868686868686869d509d509d509d509d509d509d505050505050505090919293949596565b60046020528060005260406000206000915090505481565b60608060608060608060606000600a60008a81526020019081526020016000208054806020026020016040519081016040528092919081815260200182805480156108d457602002820191906000526020600020905b8154815260200190600101908083116108c0575b50505050509050600080805467ffffffffffffffff8111156108f9576108f8612241565b5b6040519080825280602002602001820160405280156109275781602001602082028036833780820191505090505b5090506000805467ffffffffffffffff81111561094757610946612241565b5b6040519080825280602002602001820160405280156109755781602001602082028036833780820191505090505b5090506000805467ffffffffffffffff81111561099557610994612241565b5b6040519080825280602002602001820160405280156109c35781602001602082028036833780820191505090505b5090506000805467ffffffffffffffff8111156109e3576109e2612241565b5b604051908082528060200260200182016040528015610a115781602001602082028036833780820191505090505b5090506000805467ffffffffffffffff811115610a3157610a30612241565b5b604051908082528060200260200182016040528015610a5f5781602001602082028036833780820191505090505b5090506000805467ffffffffffffffff811115610a7f57610a7e612241565b5b604051908082528060200260200182016040528015610aad5781602001602082028036833780820191505090505b5090506000805467ffffffffffffffff811115610acd57610acc612241565b5b604051908082528060200260200182016040528015610afb5781602001602082028036833780820191505090505b50905060005b600054811015610d035760005b8a51811015610cef578a8181518110610b2a57610b29612270565b5b602002602001015160026000848152602001908152602001600020600301541415610cdc576002600083815260200190815260200160002060000154898b81518110610b7957610b78612270565b5b6020026020010181815250506002600083815260200190815260200160002060010154888b81518110610baf57610bae612270565b5b6020026020010181815250506002600083815260200190815260200160002060020154878b81518110610be557610be4612270565b5b6020026020010181815250506002600083815260200190815260200160002060030154868b81518110610c1b57610c1a612270565b5b6020026020010181815250506002600083815260200190815260200160002060040154858b81518110610c5157610c50612270565b5b6020026020010181815250506002600083815260200190815260200160002060050154848b81518110610c8757610c86612270565b5b6020026020010181815250506002600083815260200190815260200160002060060154838b81518110610cbd57610cbc612270565b5b6020026020010181815250508980610cd4906122ce565b9a5050610cef565b8080610ce7906122ce565b915050610b0e565b508080610cfb906122ce565b915050610b01565b50868686868686869f509f509f509f509f509f509f50505050505050505050919395979092949650565b606080606080606080600060015467ffffffffffffffff811115610d5457610d53612241565b5b604051908082528060200260200182016040528015610d825781602001602082028036833780820191505090505b509050600060015467ffffffffffffffff811115610da357610da2612241565b5b604051908082528060200260200182016040528015610dd15781602001602082028036833780820191505090505b509050600060015467ffffffffffffffff811115610df257610df1612241565b5b604051908082528060200260200182016040528015610e205781602001602082028036833780820191505090505b509050600060015467ffffffffffffffff811115610e4157610e40612241565b5b604051908082528060200260200182016040528015610e6f5781602001602082028036833780820191505090505b509050600060015467ffffffffffffffff811115610e9057610e8f612241565b5b604051908082528060200260200182016040528015610ebe5781602001602082028036833780820191505090505b509050600060015467ffffffffffffffff811115610edf57610ede612241565b5b604051908082528060200260200182016040528015610f0d5781602001602082028036833780820191505090505b50905060005b600154811015611074576003600082815260200190815260200160002060000154878281518110610f4757610f46612270565b5b6020026020010181815250506003600082815260200190815260200160002060010154868281518110610f7d57610f7c612270565b5b6020026020010181815250506003600082815260200190815260200160002060020154858281518110610fb357610fb2612270565b5b6020026020010181815250506003600082815260200190815260200160002060030154848281518110610fe957610fe8612270565b5b602002602001018181525050600360008281526020019081526020016000206004015483828151811061101f5761101e612270565b5b602002602001018181525050600360008281526020019081526020016000206005015482828151811061105557611054612270565b5b602002602001018181525050808061106c906122ce565b915050610f13565b508585858585859b509b509b509b509b509b50505050505050909192939495565b6040518060e001604052806000548152602001878152602001868152602001858152602001848152602001838152602001828152506002600080548152602001908152602001600020600082015181600001556020820151816001015560408201518160020155606082015181600301556080820151816004015560a0820151816005015560c08201518160060155905050600080815480929190611139906122ce565b9190505550600a600088815260200190815260200160002084908060018154018082558091505060019003906000526020600020016000909190919091505550505050505050565b600081600760008581526020019081526020016000205414156111a757600190506111ac565b600090505b92915050565b600860205281600052604060002081815481106111ce57600080fd5b90600052602060002001600091509150505481565b600860008281526020019081526020016000208290806001815401808255809150506001900390600052602060002001600090919091909150558060066000848152602001908152602001600020819055505050565b6060806060806060806000600860008981526020019081526020016000208054806020026020016040519081016040528092919081815260200182805480156112a157602002820191906000526020600020905b81548152602001906001019080831161128d575b5050505050905060008060015467ffffffffffffffff8111156112c7576112c6612241565b5b6040519080825280602002602001820160405280156112f55781602001602082028036833780820191505090505b509050600060015467ffffffffffffffff81111561131657611315612241565b5b6040519080825280602002602001820160405280156113445781602001602082028036833780820191505090505b509050600060015467ffffffffffffffff81111561136557611364612241565b5b6040519080825280602002602001820160405280156113935781602001602082028036833780820191505090505b509050600060015467ffffffffffffffff8111156113b4576113b3612241565b5b6040519080825280602002602001820160405280156113e25781602001602082028036833780820191505090505b509050600060015467ffffffffffffffff81111561140357611402612241565b5b6040519080825280602002602001820160405280156114315781602001602082028036833780820191505090505b509050600060015467ffffffffffffffff81111561145257611451612241565b5b6040519080825280602002602001820160405280156114805781602001602082028036833780820191505090505b50905060005b60015481101561164e5760005b895181101561163a578981815181106114af576114ae612270565b5b602002602001015160036000848152602001908152602001600020600101541415611627576003600083815260200190815260200160002060000154888a815181106114fe576114fd612270565b5b6020026020010181815250506003600083815260200190815260200160002060010154878a8151811061153457611533612270565b5b6020026020010181815250506003600083815260200190815260200160002060020154868a8151811061156a57611569612270565b5b6020026020010181815250506003600083815260200190815260200160002060030154858a815181106115a05761159f612270565b5b6020026020010181815250506003600083815260200190815260200160002060040154848a815181106115d6576115d5612270565b5b6020026020010181815250506003600083815260200190815260200160002060050154838a8151811061160c5761160b612270565b5b6020026020010181815250508880611623906122ce565b9950505b8080611632906122ce565b915050611493565b508080611646906122ce565b915050611486565b508585858585859d509d509d509d509d509d50505050505050505091939550919395565b6040518060c0016040528060015481526020018481526020018581526020018381526020018281526020017f417661696c61626c650000000000000000000000000000000000000000000000815250600360006001548152602001908152602001600020600082015181600001556020820151816001015560408201518160020155606082015181600301556080820151816004015560a08201518160050155905050600154600460008581526020019081526020016000208190555060016000815480929190611742906122ce565b91905055508460056000858152602001908152602001600020819055505050505050565b6009602052816000526040600020818154811061178257600080fd5b90600052602060002001600091509150505481565b60608060606000600960008681526020019081526020016000208054806020026020016040519081016040528092919081815260200182805480156117fb57602002820191906000526020600020905b8154815260200190600101908083116117e7575b505050505090506000815167ffffffffffffffff81111561181f5761181e612241565b5b60405190808252806020026020018201604052801561184d5781602001602082028036833780820191505090505b5090506000825167ffffffffffffffff81111561186d5761186c612241565b5b60405190808252806020026020018201604052801561189b5781602001602082028036833780820191505090505b50905060005b835181101561195757600660008583815181106118c1576118c0612270565b5b60200260200101518152602001908152602001600020548382815181106118eb576118ea612270565b5b6020026020010181815250506005600085838151811061190e5761190d612270565b5b602002602001015181526020019081526020016000205482828151811061193857611937612270565b5b602002602001018181525050808061194f906122ce565b9150506118a1565b508282829550955095505050509193909250565b60066020528060005260406000206000915090505481565b60008060008060015411156119d757600091505b6001548210156119d65784600360008481526020019081526020016000206001015414156119c3578190505b81806119ce906122ce565b925050611997565b5b600360008281526020019081526020016000206005015492507f417661696c61626c650000000000000000000000000000000000000000000000831415611aa6577f4e410000000000000000000000000000000000000000000000000000000000006003600083815260200190815260200160002060050181905550600960008581526020019081526020016000208590806001815401808255809150506001900390600052602060002001600090919091909150558360076000878152602001908152602001600020819055505b5050505050565b60056020528060005260406000206000915090505481565b60036020528060005260406000206000915090508060000154908060010154908060020154908060030154908060040154908060050154905086565b60076020528060005260406000206000915090505481565b60026020528060005260406000206000915090508060000154908060010154908060020154908060030154908060040154908060050154908060060154905087565b600a6020528160005260406000208181548110611b7757600080fd5b90600052602060002001600091509150505481565b600081519050919050565b600082825260208201905092915050565b6000819050602082019050919050565b6000819050919050565b611bcb81611bb8565b82525050565b6000611bdd8383611bc2565b60208301905092915050565b6000602082019050919050565b6000611c0182611b8c565b611c0b8185611b97565b9350611c1683611ba8565b8060005b83811015611c47578151611c2e8882611bd1565b9750611c3983611be9565b925050600181019050611c1a565b5085935050505092915050565b600081519050919050565b600082825260208201905092915050565b6000819050602082019050919050565b6000819050919050565b611c9381611c80565b82525050565b6000611ca58383611c8a565b60208301905092915050565b6000602082019050919050565b6000611cc982611c54565b611cd38185611c5f565b9350611cde83611c70565b8060005b83811015611d0f578151611cf68882611c99565b9750611d0183611cb1565b925050600181019050611ce2565b5085935050505092915050565b600060e0820190508181036000830152611d36818a611bf6565b90508181036020830152611d4a8189611cbe565b90508181036040830152611d5e8188611cbe565b90508181036060830152611d728187611cbe565b90508181036080830152611d868186611bf6565b905081810360a0830152611d9a8185611cbe565b905081810360c0830152611dae8184611cbe565b905098975050505050505050565b600080fd5b611dca81611c80565b8114611dd557600080fd5b50565b600081359050611de781611dc1565b92915050565b600060208284031215611e0357611e02611dbc565b5b6000611e1184828501611dd8565b91505092915050565b611e2381611bb8565b82525050565b6000602082019050611e3e6000830184611e1a565b92915050565b600060c0820190508181036000830152611e5e8189611bf6565b90508181036020830152611e728188611cbe565b90508181036040830152611e868187611cbe565b90508181036060830152611e9a8186611cbe565b90508181036080830152611eae8185611bf6565b905081810360a0830152611ec28184611cbe565b9050979650505050505050565b611ed881611bb8565b8114611ee357600080fd5b50565b600081359050611ef581611ecf565b92915050565b600080600080600080600060e0888a031215611f1a57611f19611dbc565b5b6000611f288a828b01611dd8565b9750506020611f398a828b01611dd8565b9650506040611f4a8a828b01611dd8565b9550506060611f5b8a828b01611dd8565b9450506080611f6c8a828b01611ee6565b93505060a0611f7d8a828b01611dd8565b92505060c0611f8e8a828b01611dd8565b91505092959891949750929550565b60008060408385031215611fb457611fb3611dbc565b5b6000611fc285828601611dd8565b9250506020611fd385828601611dd8565b9150509250929050565b60008115159050919050565b611ff281611fdd565b82525050565b600060208201905061200d6000830184611fe9565b92915050565b6000806040838503121561202a57612029611dbc565b5b600061203885828601611dd8565b925050602061204985828601611ee6565b9150509250929050565b61205c81611c80565b82525050565b60006020820190506120776000830184612053565b92915050565b600080600080600060a0868803121561209957612098611dbc565b5b60006120a788828901611dd8565b95505060206120b888828901611dd8565b94505060406120c988828901611dd8565b93505060606120da88828901611dd8565b92505060806120eb88828901611ee6565b9150509295509295909350565b600060608201905081810360008301526121128186611cbe565b905081810360208301526121268185611cbe565b9050818103604083015261213a8184611cbe565b9050949350505050565b60006020828403121561215a57612159611dbc565b5b600061216884828501611ee6565b91505092915050565b600060c0820190506121866000830189611e1a565b6121936020830188612053565b6121a06040830187612053565b6121ad6060830186612053565b6121ba6080830185611e1a565b6121c760a0830184612053565b979650505050505050565b600060e0820190506121e7600083018a611e1a565b6121f46020830189612053565b6122016040830188612053565b61220e6060830187612053565b61221b6080830186611e1a565b61222860a0830185612053565b61223560c0830184612053565b98975050505050505050565b7f4e487b7100000000000000000000000000000000000000000000000000000000600052604160045260246000fd5b7f4e487b7100000000000000000000000000000000000000000000000000000000600052603260045260246000fd5b7f4e487b7100000000000000000000000000000000000000000000000000000000600052601160045260246000fd5b60006122d982611bb8565b91507fffffffffffffffffffffffffffffffffffffffffffffffffffffffffffffffff82141561230c5761230b61229f565b5b60018201905091905056fea2646970667358221220d073a2121363509a6e94f247c2397db9ed0cbfd1207b89d259dd3b1ec812037f64736f6c634300080c0033",
  "immutableReferences": {},
  "source": "pragma solidity ^0.8.12;\n\ncontract product {\n\n    uint256 sellerCount;\n    uint256 productCount;\n\n    struct seller{\n        uint256 sellerId;\n        bytes32 sellerName;\n        bytes32 sellerBrand;\n        bytes32 sellerCode;\n        uint256 sellerNum;\n        bytes32 sellerManager;\n        bytes32 sellerAddress;\n    }\n    mapping(uint=>seller) public sellers;\n\n    struct productItem{\n        uint256 productId;\n        bytes32 productSN;\n        bytes32 productName;\n        bytes32 productBrand;\n        uint256 productPrice;\n        bytes32 productStatus;\n    }\n\n    mapping(uint256=>productItem) public productItems;\n    mapping(bytes32=>uint256) public productMap;\n    mapping(bytes32=>bytes32) public productsManufactured;\n    mapping(bytes32=>bytes32) public productsForSale;\n    mapping(bytes32=>bytes32) public productsSold;\n    mapping(bytes32=>bytes32[]) public productsWithSeller;\n    mapping(bytes32=>bytes32[]) public productsWithConsumer;\n    mapping(bytes32=>bytes32[]) public sellersWithManufacturer;\n\n\n    //SELLER SECTION\n\n    function addSeller(bytes32 _manufacturerId, bytes32 _sellerName, bytes32 _sellerBrand, bytes32 _sellerCode,\n    uint256 _sellerNum, bytes32 _sellerManager, bytes32 _sellerAddress) public{\n        sellers[sellerCount] = seller(sellerCount, _sellerName, _sellerBrand, _sellerCode,\n        _sellerNum, _sellerManager, _sellerAddress);\n        sellerCount++;\n\n        sellersWithManufacturer[_manufacturerId].push(_sellerCode);\n    }\n\n\n    function viewSellers () public view returns(uint256[] memory, bytes32[] memory, bytes32[] memory, bytes32[] memory, uint256[] memory, bytes32[] memory, bytes32[] memory) {\n        uint256[] memory ids = new uint256[](sellerCount);\n        bytes32[] memory snames = new bytes32[](sellerCount);\n        bytes32[] memory sbrands = new bytes32[](sellerCount);\n        bytes32[] memory scodes = new bytes32[](sellerCount);\n        uint256[] memory snums = new uint256[](sellerCount);\n        bytes32[] memory smanagers = new bytes32[](sellerCount);\n        bytes32[] memory saddress = new bytes32[](sellerCount);\n        \n        for(uint i=0; i<sellerCount; i++){\n            ids[i] = sellers[i].sellerId;\n            snames[i] = sellers[i].sellerName;\n            sbrands[i] = sellers[i].sellerBrand;\n            scodes[i] = sellers[i].sellerCode;\n            snums[i] = sellers[i].sellerNum;\n            smanagers[i] = sellers[i].sellerManager;\n            saddress[i] = sellers[i].sellerAddress;\n        }\n        return(ids, snames, sbrands, scodes, snums, smanagers, saddress);\n    }\n\n    //PRODUCT SECTION\n\n    function addProduct(bytes32 _manufactuerID, bytes32 _productName, bytes32 _productSN, bytes32 _productBrand,\n    uint256 _productPrice) public{\n        productItems[productCount] = productItem(productCount, _productSN, _productName, _productBrand,\n        _productPrice, \"Available\");\n        productMap[_productSN] = productCount;\n        productCount++;\n        productsManufactured[_productSN] = _manufactuerID;\n    }\n\n\n    function viewProductItems () public view returns(uint256[] memory, bytes32[] memory, bytes32[] memory, bytes32[] memory, uint256[] memory, bytes32[] memory) {\n        uint256[] memory pids = new uint256[](productCount);\n        bytes32[] memory pSNs = new bytes32[](productCount);\n        bytes32[] memory pnames = new bytes32[](productCount);\n        bytes32[] memory pbrands = new bytes32[](productCount);\n        uint256[] memory pprices = new uint256[](productCount);\n        bytes32[] memory pstatus = new bytes32[](productCount);\n        \n        for(uint i=0; i<productCount; i++){\n            pids[i] = productItems[i].productId;\n            pSNs[i] = productItems[i].productSN;\n            pnames[i] = productItems[i].productName;\n            pbrands[i] = productItems[i].productBrand;\n            pprices[i] = productItems[i].productPrice;\n            pstatus[i] = productItems[i].productStatus;\n        }\n        return(pids, pSNs, pnames, pbrands, pprices, pstatus);\n    }\n\n    //SELL Product\n\n    function manufacturerSellProduct(bytes32 _productSN, bytes32 _sellerCode) public{\n        productsWithSeller[_sellerCode].push(_productSN);\n        productsForSale[_productSN] = _sellerCode;\n\n    }\n\n    function sellerSellProduct(bytes32 _productSN, bytes32 _consumerCode) public{   \n        bytes32 pStatus;\n        uint256 i;\n        uint256 j=0;\n\n        if(productCount>0) {\n            for(i=0;i<productCount;i++) {\n                if(productItems[i].productSN == _productSN) {\n                    j=i;\n                }\n            }\n        }\n\n        pStatus = productItems[j].productStatus;\n        if(pStatus == \"Available\") {\n            productItems[j].productStatus = \"NA\";\n            productsWithConsumer[_consumerCode].push(_productSN);\n            productsSold[_productSN] = _consumerCode;\n        }\n\n\n    }\n\n\n    function queryProductsList(bytes32 _sellerCode) public view returns(uint256[] memory, bytes32[] memory, bytes32[] memory, bytes32[] memory, uint256[] memory, bytes32[] memory){\n        bytes32[] memory productSNs = productsWithSeller[_sellerCode];\n        uint256 k=0;\n\n        uint256[] memory pids = new uint256[](productCount);\n        bytes32[] memory pSNs = new bytes32[](productCount);\n        bytes32[] memory pnames = new bytes32[](productCount);\n        bytes32[] memory pbrands = new bytes32[](productCount);\n        uint256[] memory pprices = new uint256[](productCount);\n        bytes32[] memory pstatus = new bytes32[](productCount);\n\n        \n        for(uint i=0; i<productCount; i++){\n            for(uint j=0; j<productSNs.length; j++){\n                if(productItems[i].productSN==productSNs[j]){\n                    pids[k] = productItems[i].productId;\n                    pSNs[k] = productItems[i].productSN;\n                    pnames[k] = productItems[i].productName;\n                    pbrands[k] = productItems[i].productBrand;\n                    pprices[k] = productItems[i].productPrice;\n                    pstatus[k] = productItems[i].productStatus;\n                    k++;\n                }\n            }\n        }\n        return(pids, pSNs, pnames, pbrands, pprices, pstatus);\n    }\n\n    function querySellersList (bytes32 _manufacturerCode) public view returns(uint256[] memory, bytes32[] memory, bytes32[] memory, bytes32[] memory, uint256[] memory, bytes32[] memory, bytes32[] memory) {\n        bytes32[] memory sellerCodes = sellersWithManufacturer[_manufacturerCode];\n        uint256 k=0;\n        uint256[] memory ids = new uint256[](sellerCount);\n        bytes32[] memory snames = new bytes32[](sellerCount);\n        bytes32[] memory sbrands = new bytes32[](sellerCount);\n        bytes32[] memory scodes = new bytes32[](sellerCount);\n        uint256[] memory snums = new uint256[](sellerCount);\n        bytes32[] memory smanagers = new bytes32[](sellerCount);\n        bytes32[] memory saddress = new bytes32[](sellerCount);\n        \n        for(uint i=0; i<sellerCount; i++){\n            for(uint j=0; j<sellerCodes.length; j++){\n                if(sellers[i].sellerCode==sellerCodes[j]){\n                    ids[k] = sellers[i].sellerId;\n                    snames[k] = sellers[i].sellerName;\n                    sbrands[k] = sellers[i].sellerBrand;\n                    scodes[k] = sellers[i].sellerCode;\n                    snums[k] = sellers[i].sellerNum;\n                    smanagers[k] = sellers[i].sellerManager;\n                    saddress[k] = sellers[i].sellerAddress;\n                    k++;\n                    break;\n               }\n            }\n        }\n\n        return(ids, snames, sbrands, scodes, snums, smanagers, saddress);\n    }\n\n    function getPurchaseHistory(bytes32 _consumerCode) public view returns (bytes32[] memory, bytes32[] memory, bytes32[] memory){\n        bytes32[] memory productSNs = productsWithConsumer[_consumerCode];\n        bytes32[] memory sellerCodes = new bytes32[](productSNs.length);\n        bytes32[] memory manufacturerCodes = new bytes32[](productSNs.length);\n        for(uint i=0; i<productSNs.length; i++){\n            sellerCodes[i] = productsForSale[productSNs[i]];\n            manufacturerCodes[i] = productsManufactured[productSNs[i]];\n        }\n        return (productSNs, sellerCodes, manufacturerCodes);\n    }\n\n    //Verify\n\n    function verifyProduct(bytes32 _productSN, bytes32 _consumerCode) public view returns(bool){\n        if(productsSold[_productSN] == _consumerCode){\n            return true;\n        }\n        else{\n            return false;\n        }\n    }\n}",
  "sourcePath": "C:\\Users\\ANIKET\\Desktop\\Minor\\Fake-Product-Identification-master\\Fake-Product-Identification-master\\contracts\\product.sol",
  "compiler": {
    "name": "solc",
    "version": "0.8.12+commit.f00d7308.Emscripten.clang"
  },
  "schemaVersion": "3.4.16",
  "updatedAt": "2024-03-29T15:40:31.383Z",
  "networkType": "ethereum",
  "devdoc": {
    "kind": "dev",
    "methods": {},
    "version": 1
  },
  "userdoc": {
    "kind": "user",
    "methods": {},
    "version": 1
  }
}